:020000040800F2
:10000000002800202D160008BD150008C3150008A3
:10001000C9150008CF150008D5150008000000001C
:10002000000000000000000000000000DB150008D8
:10003000E715000800000000F3150008FF15000890
:100040007516000875160008751600087516000864
:100050007516000875160008751600087516000854
:100060007516000875160008751600087516000844
:100070007516000875160008751600087516000834
:100080007516000875160008751600087516000824
:100090007516000875160008751600087516000814
:1000A0007516000875160008751600087516000804
:1000B0000D160008751600080000000075160008EF
:1000C000751600080000000000000000751600080A
:1000D00000000000751600087516000800000000FA
:1000E0007516000875160008751600080000000057
:1000F0000000000000000000000000000000000000
:0C01000000000000000000005FF808F1A3
:10010C0010B5054C237833B9044B13B10448AFF345
:10011C0000800123237010BD480000200000000067
:10012C00CC2C000808B5034B1BB103490348AFF3B3
:10013C00008008BD000000004C000020CC2C000802
:10014C0080B400AF064B1B68012B04D1044B00227A
:10015C001A60012300E000231846BD4680BC70479E
:10016C006400002080B400AF064B1B68012B04D147
:10017C00044B00221A60012300E000231846BD4600
:10018C0080BC70476800002080B400AF064B1B6831
:10019C00012B04D1044B00221A60012300E0002340
:1001AC001846BD4680BC70476C00002080B582B0FC
:1001BC0000AF00237B6012E04D4A7B6852F823208D
:1001CC004C497B6841F823204B4A7B6852F823202A
:1001DC0047497B6841F823207B6801337B607B684F
:1001EC00022BE9DD00233B607AE0414A3B6852F880
:1001FC00232040493B6841F823203F4A3B6852F892
:10020C0023203B493B6841F823203B68002B0AD153
:10021C004FF40061394801F013FD03461946364A84
:10022C003B6842F823103B68012B0AD14FF48051F4
:10023C00324801F005FD034619462F4A3B6842F847
:10024C0023103B68022B0AD14FF400512B4801F0CC
:10025C00F7FC03461946284A3B6842F82310254A06
:10026C003B6852F8232022493B6851F823309A42CC
:10027C0033D11F4A3B6852F823201F493B6851F881
:10028C0023309A4229D11E4A3B6852F823201A493E
:10029C003B6851F823309A421FD0174A3B6852F8FA
:1002AC00232017493B6841F82320134A3B6852F836
:1002BC002330012B11D13B68002B02D1114B0122B1
:1002CC001A603B68012B02D10F4B01221A603B686C
:1002DC00022B02D10D4B01221A603B6801333B60AB
:1002EC003B68022B81DD00BF00BF0837BD4680BDD7
:1002FC000C00002000000020180000200008014025
:10030C002400002064000020680000206C00002005
:10031C00B0B500AF904B1B68042B00F20B8301A20D
:10032C0052F823F045030008BF030008B10600088B
:10033C0091070008A50800081E2001F069F8282084
:10034C0001F082F8844B01221A60844B1B68844AAA
:10035C001360844B1B68844A1360844B1B68844A6B
:10036C00136001222021834801F081FC01224021ED
:10037C00804801F07CFC012280217E4801F077FC52
:10038C0001224FF480717B4801F071FC01224FF483
:10039C000071784801F06BFC01224FF480617548C4
:1003AC0001F065FC744B00221A60744B00221A6039
:1003BC00C9E26A4B1A686B4B1B681A446B4B1B687F
:1003CC0013446F4A13606C4B1B68002B03D16C4BAE
:1003DC001B68694A1360694B1B68002B03D1684B7F
:1003EC001B68664A13605D4B1A68634B1B689A4224
:1003FC001CDA614B1A68624B1B689A4216DC0022AD
:10040C0020215C4801F033FC01224021594801F0C5
:10041C002EFC01228021574801F029FC564B1A680A
:10042C004E4B1B68D31A574A13603FE04F4B1A6868
:10043C00514B1B689A421CDA4F4B1A68474B1B688E
:10044C009A4216DC012220214A4801F010FC0022BD
:10045C004021484801F00BFC01228021454801F065
:10046C0006FC454B1A68414B1B68D31A454A13606E
:10047C001CE0414B1B68002B18DD3F4B1A683B4BB3
:10048C001B689A4212DC012220213A4801F0EFFB52
:10049C0001224021374801F0EAFB00228021354837
:1004AC0001F0E5FB344B1B68364A13602B4B1A6882
:1004BC002E4B1B681A44314B1B689A4222DA2F4B85
:1004CC001A682F4B1B689A421CDC01224FF4807176
:1004DC00284801F0CCFB00224FF40071254801F0B4
:1004EC00C6FB01224FF48061224801F0C0FB234B74
:1004FC001A681A4B1B68D21A1C4B1B68D31A224A57
:10050C00136063E0154B1A681C4B1B689A423DDA6A
:10051C00124B1A68154B1B681A44184B1B689A42ED
:10052C0034DB01224FF48071124801F0A0FB012250
:10053C004FF400710F4801F09AFB00224FF48061D8
:10054C000C4801F094FB0D4B1A68044B1B68D31A32
:10055C000D4A13603AE000BF9000002030000020EC
:10056C0084000020340000208C0000203800002083
:10057C008800002000080140740000207800002052
:10058C00700000207C00002080000020B54B1B6810
:10059C00002B1BDDB34B1A68B34B1B689A4215DC5E
:1005AC0000224FF48071B14801F061FB01224FF43D
:1005BC000071AE4801F05BFB01224FF48061AB4847
:1005CC0001F055FBA74B1B68A94A1360A94B1B688C
:1005DC00A94A82FB03129210DB17D41AA54B1A6896
:1005EC00A54B83FB02139910D317C91A0B469B001A
:1005FC000B445B00D11A9E4B1B689F4A82FB030283
:10060C009210DB17D51A9A4B1A689B4B83FB02038B
:10061C009810D317C01A03469B0003445B00D01AF2
:10062C0003462A46204600F04BFD944B1B68012BD9
:10063C000DD1934B1B68013B914A1360894B1B688E
:10064C00013B884A13604FF47A7000F0E1FEFFF72B
:10065C0077FD0346012B40F06F818A4B02221A6012
:10066C0001224FF40071814801F001FB01224FF48B
:10067C0080717E4801F0FBFA012240217B4801F099
:10068C00F6FA01222021794801F0F1FA01224FF407
:10069C008061764801F0EBFA01228021734801F069
:1006AC00E6FA49E1784B1B68734A82FB03129210FD
:1006BC00DB17D01A744B1A686F4B83FB021399101B
:1006CC00D317C91A0B469B000B445B00D11A0B467F
:1006DC0002460221002000F0F3FC6C4B1B68012B3E
:1006EC000BD12021614801F0DAFA4FF480715F4898
:1006FC0001F0D5FAFA2000F0A7FEFFF721FD034622
:10070C00012B23D15F4B03221A6001224FF400719D
:10071C00564801F0ACFA01224FF48071534801F0B5
:10072C00A6FA01224021514801F0A1FA0122202110
:10073C004E4801F09CFA01224FF480614B4801F0C5
:10074C0096FA01228021494801F091FAFFF70AFD3F
:10075C000346012B0BD14C4B1B6801334A4A1360E7
:10076C00494B1B68632B02DD474B00221A60FFF7D5
:10077C000BFD0346012B40F0E180434B1B683A4ACA
:10078C001360DBE0424B1B683B4A82FB0312921066
:10079C00DB17D01A3E4B1A68374B83FB02139910A8
:1007AC00D317C91A0B469B000B445B00D11A0B469E
:1007BC0002460321002000F083FC344B1B68012B04
:1007CC000BD18021294801F06AFA4FF48061274847
:1007DC0001F065FAFA2000F037FEFFF7B1FC034692
:1007EC00012B23D1274B04221A6001224FF40071F4
:1007FC001E4801F03CFA01224FF480711B4801F0B5
:10080C0036FA01224021194801F031FA0122202147
:10081C00164801F02CFA01224FF48061134801F0C4
:10082C0026FA01228021114801F021FAFFF79AFCE7
:10083C000346012B0BD1164B1B680133144A136072
:10084C00134B1B68632B02DD114B00221A60FFF760
:10085C009BFC0346012B73D10D4B1B680D4A136097
:10086C006EE000BF7800002030000020000801403E
:10087C00800000207C00002067666666B0000020C7
:10088C00740000209000002084000020B80000209C
:10089C0088000020380000202C4B1B682C4A82FB5F
:1008AC0003129210DB17D01A284B1A68284B83FBC3
:1008BC0002139910D317C91A0B469B000B445B000B
:1008CC00D11A0B4602460421002000F0F9FB214B03
:1008DC001B68012B0BD140211F4801F0E0F94FF4AC
:1008EC0000711D4801F0DBF9FA2000F0ADFDFFF7B7
:1008FC0027FC0346012B02D1184B00221A60FFF78C
:10090C0031FC0346012B0BD1104B1B6801330F4AF2
:10091C0013600E4B1B68632B02DD0C4B00221A601C
:10092C00FFF732FC0346012B0CD1084B1B680C4A19
:10093C00136007E000BF06E000BF04E000BF02E068
:10094C0000BF00E000BF00BFB0BD00BF8C000020A6
:10095C0067666666B8000020000801409000002021
:10096C003400002080B582B000AF78607B68002B2B
:10097C0023D100220121C04801F079F90022022183
:10098C00BD4801F074F900220421BB4801F06FF955
:10099C0000220821B84801F06AF900221021B6485B
:1009AC0001F065F900222021B34801F060F9012221
:1009BC004021B14801F05BF983E17B68012B23D125
:1009CC0001220121AC4801F052F900220221AA486F
:1009DC0001F04DF900220421A74801F048F9012249
:1009EC000821A54801F043F901221021A24801F089
:1009FC003EF901222021A04801F039F901224021C1
:100A0C009D4801F034F95CE17B68022B23D1002274
:100A1C000121994801F02BF900220221964801F09E
:100A2C0026F901220421944801F021F90022082121
:100A3C00914801F01CF9002210218F4801F017F9A0
:100A4C00012220218C4801F012F9002240218A4811
:100A5C0001F00DF935E17B68032B23D10022012134
:100A6C00854801F004F900220221834801F0FFF8C7
:100A7C0000220421804801F0FAF8002208217E4867
:100A8C0001F0F5F8012210217B4801F0F0F8012269
:100A9C002021794801F0EBF800224021764801F042
:100AAC00E6F80EE17B68042B23D101220121724868
:100ABC0001F0DDF8002202216F4801F0D8F8002285
:100ACC0004216D4801F0D3F8012208216A4801F095
:100ADC00CEF801221021684801F0C9F8002220212B
:100AEC00654801F0C4F800224021634801F0BFF8CA
:100AFC00E7E07B68052B23D1002201215E4801F041
:100B0C00B6F8012202215C4801F0B1F80022042160
:100B1C00594801F0ACF800220821574801F0A7F819
:100B2C0001221021544801F0A2F800222021524841
:100B3C0001F09DF8002240214F4801F098F8C0E0E8
:100B4C007B68062B23D1002201214B4801F08FF842
:100B5C0001220221484801F08AF80022042146486B
:100B6C0001F085F800220821434801F080F80022AA
:100B7C001021414801F07BF8002220213E4801F071
:100B8C0076F8002240213C4801F071F899E07B682E
:100B9C00072B23D100220121374801F068F80022ED
:100BAC000221354801F063F800220421324801F09B
:100BBC005EF801220821304801F059F80122102179
:100BCC002D4801F054F8012220212B4801F04FF858
:100BDC0001224021284801F04AF872E07B68082B7A
:100BEC0023D100220121244801F041F800220221E6
:100BFC00214801F03CF8002204211F4801F037F88D
:100C0C00002208211C4801F032F8002210211A4859
:100C1C0001F02DF800222021174801F028F80022BD
:100C2C004021154801F023F84BE07B68092B25D1B6
:100C3C0000220121104801F01AF8002202210E486E
:100C4C0001F015F8002204210B4801F010F80022E5
:100C5C000821094801F00BF801221021064801F087
:100C6C0006F800222021044801F001F8002240215E
:100C7C00014800F0FCFF24E0000C0140012201219E
:100C8C00124800F0F4FF01220221104800F0EFFF9F
:100C9C00012204210D4800F0EAFF012208210B4833
:100CAC0000F0E5FF01221021084800F0E0FF0122CE
:100CBC002021064800F0DBFF01224021034800F010
:100CCC00D6FF00BF0837BD4680BD00BF000C0140F9
:100CDC0080B582B000AF78607B68002B29D10022F0
:100CEC008021C84800F0C3FF00224FF48071C54832
:100CFC0000F0BDFF00224FF40071C24800F0B7FFB6
:100D0C0000224FF48061BF4800F0B1FF00224FF485
:100D1C000061BC4800F0ABFF00224FF48051B94891
:100D2C0000F0A5FF01224FF40051B64800F09FFFE0
:100D3C00C0E17B68012B29D101228021B14800F050
:100D4C0096FF00224FF48071AE4800F090FF002215
:100D5C004FF40071AB4800F08AFF01224FF4806120
:100D6C00A84800F084FF01224FF40061A54800F070
:100D7C007EFF01224FF48051A24800F078FF01223F
:100D8C004FF400519F4800F072FF93E17B68022BF7
:100D9C0029D1002280219B4800F069FF00224FF4EA
:100DAC008071984800F063FF01224FF40071954860
:100DBC0000F05DFF00224FF48061924800F057FF75
:100DCC0000224FF400618F4800F051FF01224FF4D4
:100DDC0080518C4800F04BFF00224FF400518948A1
:100DEC0000F045FF66E17B68032B29D100228021AE
:100DFC00844800F03CFF00224FF48071814800F0E1
:100E0C0036FF00224FF400717E4800F030FF0022C4
:100E1C004FF480617B4800F02AFF01224FF40061FF
:100E2C00784800F024FF01224FF48051754800F0FF
:100E3C001EFF00224FF40051724800F018FF39E1F8
:100E4C007B68042B29D1012280216E4800F00FFF12
:100E5C0000224FF480716B4800F009FF00224FF420
:100E6C000071684800F003FF01224FF4806165486F
:100E7C0000F0FDFE01224FF40061624800F0F7FE25
:100E8C0000224FF480515F4800F0F1FE00224FF435
:100E9C0000515C4800F0EBFE0CE17B68052B29D17E
:100EAC0000228021574800F0E2FE01224FF48071AD
:100EBC00544800F0DCFE00224FF40071514800F061
:100ECC00D6FE00224FF480614E4800F0D0FE012285
:100EDC004FF400614B4800F0CAFE00224FF48051E1
:100EEC00484800F0C4FE00224FF40051454800F081
:100EFC00BEFEDFE07B68062B29D100228021414811
:100F0C0000F0B5FE01224FF480713E4800F0AFFEB8
:100F1C0000224FF400713B4800F0A9FE00224FF470
:100F2C008061384800F0A3FE00224FF40061354880
:100F3C0000F09DFE00224FF48051324800F097FEE5
:100F4C0000224FF400512F4800F091FEB2E07B6874
:100F5C00072B29D1002280212A4800F088FE00228C
:100F6C004FF48071274800F082FE00224FF400718C
:100F7C00244800F07CFE01224FF48061214800F0EF
:100F8C0076FE01224FF400611E4800F070FE012233
:100F9C004FF480511B4800F06AFE01224FF40051BF
:100FAC00184800F064FE85E07B68082B2CD10022E9
:100FBC008021144800F05BFE00224FF48071114830
:100FCC0000F055FE00224FF400710E4800F04FFE69
:100FDC0000224FF480610B4800F049FE00224FF4D0
:100FEC000061084800F043FE00224FF48051054890
:100FFC0000F03DFE00224FF40051024800F037FE95
:10100C0058E000BF000C01407B68092B29D100225D
:10101C0080212A4800F02BFE00224FF480712748D3
:10102C0000F025FE00224FF40071244800F01FFE52
:10103C0000224FF48061214800F019FE01224FF488
:10104C0000611E4800F013FE00224FF480511B4833
:10105C0000F00DFE00224FF40051184800F007FE7E
:10106C0028E001228021154800F001FE01224FF4F6
:10107C008071124800F0FBFD01224FF400710F4803
:10108C0000F0F5FD01224FF480610C4800F0EFFDFB
:10109C0001224FF40061094800F0E9FD01224FF4F0
:1010AC008051064800F0E3FD01224FF40051034843
:1010BC0000F0DDFD00BF0837BD4680BD000C0140CF
:1010CC0080B485B000AFF860B9607A603B60084AC4
:1010DC00FB681360064ABB685360054A7B689360E3
:1010EC00034A3B68D36000BF1437BD4680BC7047D1
:1010FC009400002080B582B000AF78607B68002B34
:10110C0003D07B68012B17D02DE0194B1B681846B8
:10111C00FFF728FC164B5B681846FFF7D9FD002239
:10112C004FF48041134800F0A2FD01224FF400411E
:10113C00104800F09CFD16E00D4B9B681846FFF71D
:10114C0011FC0B4BDB681846FFF7C2FD01224FF474
:10115C008041084800F08BFD00224FF40041054807
:10116C0000F085FD00BF00BF0837BD4680BD00BF45
:10117C00940000200008014080B582B000AF00F060
:10118C0075FA00F02BF800F0B1F800F063F8104895
:10119C0001F0D6F90F4B00221A6000237B600A2065
:1011AC0000F01AF90C4B1B68012B0ED17868FFF775
:1011BC00A1FF7B6801337B607B68022B01D100238C
:1011CC007B604FF4FA7000F007F9FFF7A1F8E9E73C
:1011DC00BC00002090000020A800002080B590B03A
:1011EC0000AF07F1180328220021184601F060FD1A
:1011FC003B1D00221A605A609A60DA601A61022361
:10120C00BB610123BB621023FB6200237B6307F1EC
:10121C001803184600F05CFD0346002B01D000F0CB
:10122C00D5F80F237B600023BB600023FB600023F9
:10123C003B6100237B613B1D0021184600F0C8FF79
:10124C000346002B01D000F0C1F800BF4037BD466B
:10125C0080BD000080B586B000AF07F10803002206
:10126C001A605A609A60DA603B4600221A605A6033
:10127C001D4B4FF080421A601B4B41F63F725A6077
:10128C00194B00229A60184B0922DA60164B002287
:10129C001A61154B00229A61134801F001F90346BB
:1012AC00002B01D000F092F84FF48053BB6007F193
:1012BC00080319460C4801F097FA0346002B01D09D
:1012CC0000F084F800233B6000237B603B4619460A
:1012DC00054801F05FFC0346002B01D000F076F8C6
:1012EC0000BF1837BD4680BDBC00002080B586B05D
:1012FC0000AF07F1080300221A605A609A60DA60A6
:10130C00294B9B69284A43F004039361264B9B6944
:10131C0003F004037B607B68234B9B69224A43F0F8
:10132C0008039361204B9B6903F008033B603B6807
:10133C0000224CF2E0711D4800F099FC002243F6AB
:10134C00FF711B4800F093FC4CF2E073BB6001236F
:10135C00FB6000233B6102237B6107F10803194604
:10136C00124800F0F3FA43F6FF73BB600123FB60F5
:10137C0000233B6102237B6107F1080319460C48EB
:10138C0000F0E4FA4FF46053BB600023FB600123D0
:10139C003B6107F108031946044800F0D7FA00BF77
:1013AC001837BD4680BD00BF001002400008014048
:1013BC00000C014080B582B000AF786000F060F89E
:1013CC00FEF7F4FE00BF0837BD4680BD80B400AF09
:1013DC0072B600BFFEE7000080B483B000AF786047
:1013EC007B68084A82FB03129210DB17D31A064A59
:1013FC001360064B00221A6000BF0C37BD4680BC40
:10140C00704700BF67666666A4000020A800002035
:10141C0080B483B000AF78607B68084A82FB03120B
:10142C009210DB17D31A064A1360064B00221A607F
:10143C0000BF0C37BD4680BC704700BF6766666650
:10144C00AC000020B000002080B483B000AF786006
:10145C007B68084A82FB03129210DB17D31A064AE8
:10146C001360064B00221A6000BF0C37BD4680BCCF
:10147C00704700BF67666666B4000020B8000020A5
:10148C0080B400AF194B1B68002B0BDD174B1B688E
:10149C00013B164A1360154B1B68002B02DC144BE6
:1014AC0001221A60134B1B68002B0BDD114B1B68C0
:1014BC00013B104A13600F4B1B68002B02DC0E4BD8
:1014CC0001221A600D4B1B68002B0BDD0B4B1B68AC
:1014DC00013B0A4A1360094B1B68002B02DC084BCA
:1014EC0001221A6000BFBD4680BC7047A4000020DA
:1014FC00A8000020AC000020B0000020B4000020A8
:10150C00B800002080B485B000AF154B9B69144A1D
:10151C0043F001039361124B9B6903F00103BB6021
:10152C00BB680F4BDB690E4A43F08053D3610C4B05
:10153C00DB6903F080537B607B680A4B5B68FB6064
:10154C00FB6823F0E063FB60FB6843F08063FB60A7
:10155C00044AFB68536000BF1437BD4680BC70471B
:10156C00001002400000014080B584B000AF7860EC
:10157C007B681B68B3F1804F13D10C4BDB690B4AB2
:10158C0043F00103D361094BDB6903F00103FB60FA
:10159C00FB68002200211C2000F0A1F91C2000F0A7
:1015AC00BAF900BF1037BD4680BD00BF0010024025
:1015BC0080B400AFFEE780B400AFFEE780B400AFAC
:1015CC00FEE780B400AFFEE780B400AFFEE780B466
:1015DC0000AF00BFBD4680BC704780B400AF00BFF9
:1015EC00BD4680BC704780B400AF00BFBD4680BC18
:1015FC00704780B500AF00F07FF800BF80BD0000E1
:10160C0080B500AF024800F0E7FF00BF80BD00BF0F
:10161C00BC00002080B400AF00BFBD4680BC70474A
:10162C000C480D490D4A002302E0D458C450043331
:10163C00C4188C42F9D30A4A0A4C002301E0136007
:10164C000432A242FBD3FFF7E5FF01F00DFBFFF7DD
:10165C0093FD704700000020480000200C2D00086E
:10166C004800002008010020FEE7000080B500AF14
:10167C00084B1B68074A43F010031360032000F06B
:10168C0023F90F2000F008F8FFF73CFF0023184661
:10169C0080BD00BF0020024080B582B000AF7860F2
:1016AC00124B1A68124B1B7819464FF47A73B3FB22
:1016BC00F1F3B2FBF3F3184600F03BF90346002BB1
:1016CC0001D001230EE07B680F2B0AD80022796829
:1016DC004FF0FF3000F003F9064A7B6813600023DB
:1016EC0000E0012318460837BD4680BD3C000020B1
:1016FC00440000204000002080B400AF054B1B7854
:10170C001A46054B1B681344034A136000BFBD46C1
:10171C0080BC7047440000200401002080B400AF5E
:10172C00024B1B681846BD4680BC70470401002064
:10173C0080B485B000AF78607B6803F00703FB6072
:10174C000C4BDB68BB60BA684FF6FF031340BB6001
:10175C00FB681A02BB68134343F0BF6343F40033C6
:10176C00BB60044ABB68D36000BF1437BD4680BC65
:10177C00704700BF00ED00E080B400AF044BDB68A5
:10178C001B0A03F007031846BD4680BC704700BF18
:10179C0000ED00E080B483B000AF0346FB7197F915
:1017AC000730002B0BDBFB7903F01F02064997F97E
:1017BC0007305B09012000FA02F241F8232000BF38
:1017CC000C37BD4680BC704700E100E080B483B0AC
:1017DC0000AF03463960FB7197F90730002B0ADB29
:1017EC003B68DAB20C4997F907301201D2B20B44BC
:1017FC0083F800230AE03B68DAB20849FB7903F06E
:10180C000F03043B1201D2B20B441A7600BF0C3703
:10181C00BD4680BC704700BF00E100E000ED00E079
:10182C0080B489B000AFF860B9607A60FB6803F0EF
:10183C000703FB61FB69C3F10703042B28BF0423D7
:10184C00BB61FB690433062B02D9FB69033B00E047
:10185C0000237B614FF0FF32BB6902FA03F3DA43DA
:10186C00BB681A407B699A404FF0FF317B6901FAE3
:10187C0003F3D9437B680B40134318462437BD460A
:10188C0080BC704780B582B000AF78607B68013B4C
:10189C00B3F1807F01D301230FE00A4A7B68013B3F
:1018AC0053600F214FF0FF30FFF790FF054B0022E4
:1018BC009A60044B07221A60002318460837BD466D
:1018CC0080BD00BF10E000E080B582B000AF786052
:1018DC007868FFF72DFF00BF0837BD4680BD80B587
:1018EC0086B000AF0346B9607A60FB7300237B615E
:1018FC00FFF742FF78617A68B9687869FFF790FF63
:10190C00024697F90F3011461846FFF75FFF00BFEC
:10191C001837BD4680BD80B582B000AF0346FB7161
:10192C0097F907301846FFF735FF00BF0837BD465B
:10193C0080BD80B582B000AF78607868FFF7A2FFF9
:10194C00034618460837BD4680BD000080B48BB0F6
:10195C0000AF7860396000237B6200233B6248E172
:10196C0001227B6A02FA03F3FB613B681B68FA698C
:10197C001340BB61BA69FB699A4240F037813B68FE
:10198C005B68A34A93425ED0A14A934275D8A14AA0
:10199C00934258D09F4A93426FD89F4A934252D059
:1019AC009D4A934269D89D4A93424CD09B4A93429C
:1019BC0063D89B4A934246D0994A93425DD8122BE6
:1019CC002AD8122B59D801A252F823F0531A000826
:1019DC002D1A00083F1A0008811A0008871A0008FF
:1019EC00871A0008871A0008871A0008871A000847
:1019FC00871A0008871A0008871A0008871A000837
:101A0C00871A0008871A0008871A0008871A000826
:101A1C00351A0008491A0008824A934213D02CE068
:101A2C003B68DB683B6229E03B68DB6804333B6264
:101A3C0024E03B68DB6808333B621FE03B68DB68F3
:101A4C000C333B621AE03B689B68002B02D10423E9
:101A5C003B6213E03B689B68012B05D108233B627A
:101A6C007B68FA691A6109E008233B627B68FA69B2
:101A7C005A6103E000233B6200E000BFBB69FF2B0F
:101A8C0001D87B6801E07B6804337B61BB69FF2B69
:101A9C0002D87B6A9B0002E07B6A083B9B003B619F
:101AAC007B691A680F213B6901FA03F3DB431A4087
:101ABC00396A3B6901FA03F31A437B691A603B6884
:101ACC005B6803F08053002B00F09080564B9B69B1
:101ADC00554A43F001039361534B9B6903F0010397
:101AEC00BB60BB68514A7B6A9B08023352F82330B7
:101AFC00FB607B6A03F003039B000F2202FA03F3E3
:101B0C00DB43FA681340FB607B68494A93420DD073
:101B1C007B68484A934207D07B68474A934201D17D
:101B2C00022304E0032302E0012300E000237A6A8D
:101B3C0002F0030292009340FA681343FB603B49A6
:101B4C007B6A9B080233FA6841F823203B685B6888
:101B5C0003F48033002B06D0384B1A683749BB6925
:101B6C0013430B6006E0354B1A68BB69DB43334902
:101B7C0013400B603B685B6803F40033002B06D00A
:101B8C002E4B5A682D49BB6913434B6006E02B4B17
:101B9C005A68BB69DB43294913404B603B685B685F
:101BAC0003F48013002B06D0244B9A682349BB699D
:101BBC0013438B6006E0214B9A68BB69DB431F49DA
:101BCC0013408B603B685B6803F40013002B06D05A
:101BDC001A4BDA681949BB691343CB6006E0174B03
:101BEC00DA68BB69DB4315491340CB607B6A013370
:101BFC007B623B681A687B6A22FA03F3002B7FF442
:101C0C00AFAE00BF00BF2C37BD4680BC704700BFD5
:101C1C0000003210000031100000221000002110D2
:101C2C0000001210000011100010024000000140D2
:101C3C0000080140000C014000100140000401406C
:101C4C0080B485B000AF78600B467B807B689A6867
:101C5C007B881340002B02D00123FB7301E000238F
:101C6C00FB73FB7B18461437BD4680BC704780B4B1
:101C7C0083B000AF78600B467B8013467B707B781B
:101C8C00002B03D07A887B681A6103E07B881A04E6
:101C9C007B681A6100BF0C37BD4680BC704780B4AE
:101CAC0085B000AF78600B467B807B68DB68FB609F
:101CBC007A88FB6813401A04FB68D9437B880B4075
:101CCC001A437B681A6100BF1437BD4680BC70474D
:101CDC0080B586B000AF78607B68002B01D1012302
:101CEC006CE27B681B6803F00103002B00F087801B
:101CFC00924B5B6803F00C03042B0CD08F4B5B688E
:101D0C0003F00C03082B12D18C4B5B6803F480336B
:101D1C00B3F5803F0BD1894B1B6803F40033002BC8
:101D2C006CD07B685B68002B68D1012346E27B6832
:101D3C005B68B3F5803F06D1804B1B687F4A43F448
:101D4C00803313602EE07B685B68002B0CD17B4BDF
:101D5C001B687A4A23F480331360784B1B68774AEC
:101D6C0023F4802313601DE07B685B68B3F5A02F20
:101D7C000CD1724B1B68714A43F4802313606F4B78
:101D8C001B686E4A43F4803313600BE06B4B1B688B
:101D9C006A4A23F480331360684B1B68674A23F448
:101DAC00802313607B685B68002B13D0FFF7B6FCB5
:101DBC00386108E0FFF7B2FC02463B69D31A642B8A
:101DCC0001D90323FAE15D4B1B6803F40033002BAC
:101DDC00F0D014E0FFF7A2FC386108E0FFF79EFC9E
:101DEC0002463B69D31A642B01D90323E6E1534B1A
:101DFC001B6803F40033002BF0D100E000BF7B68BC
:101E0C001B6803F00203002B63D04C4B5B6803F0A0
:101E1C000C03002B0BD0494B5B6803F00C03082B15
:101E2C001CD1464B5B6803F48033002B16D1434B1B
:101E3C001B6803F00203002B05D07B681B69012B88
:101E4C0001D00123BAE13D4B1B6823F0F8027B68FB
:101E5C005B69DB00394913430B603AE07B681B6913
:101E6C00002B20D0364B01221A60FFF757FC38614B
:101E7C0008E0FFF753FC02463B69D31A022B01D949
:101E8C0003239BE12D4B1B6803F00203002BF0D0C6
:101E9C002A4B1B6823F0F8027B685B69DB0027493F
:101EAC0013430B6015E0264B00221A60FFF736FC3B
:101EBC00386108E0FFF732FC02463B69D31A022B6B
:101ECC0001D903237AE11D4B1B6803F00203002B9D
:101EDC00F0D17B681B6803F00803002B3AD07B68B9
:101EEC009B69002B19D0174B01221A60FFF716FCC7
:101EFC00386108E0FFF712FC02463B69D31A022B4B
:101F0C0001D903235AE10D4B5B6A03F00203002B4A
:101F1C00F0D0012000F0A6FA1CE00A4B00221A6057
:101F2C00FFF7FCFB38610FE0FFF7F8FB02463B695B
:101F3C00D31A022B08D9032340E100BF0010024042
:101F4C0000004242800442429E4B5B6A03F0020353
:101F5C00002BE9D17B681B6803F00403002B00F015
:101F6C00A6800023FB75974BDB6903F08053002B95
:101F7C000DD1944BDB69934A43F08053D361914B61
:101F8C00DB6903F08053BB60BB680123FB758E4B90
:101F9C001B6803F48073002B18D18B4B1B688A4A87
:101FAC0043F480731360FFF7B9FB386108E0FFF767
:101FBC00B5FB02463B69D31A642B01D90323FDE020
:101FCC00814B1B6803F48073002BF0D07B68DB68BB
:101FDC00012B06D17B4B1B6A7A4A43F00103136237
:101FEC002DE07B68DB68002B0CD1764B1B6A754AA5
:101FFC0023F001031362734B1B6A724A23F0040330
:10200C0013621CE07B68DB68052B0CD16D4B1B6AE3
:10201C006C4A43F0040313626A4B1B6A694A43F02F
:10202C00010313620BE0674B1B6A664A23F0010342
:10203C001362644B1B6A634A23F0040313627B68CC
:10204C00DB68002B15D0FFF769FB38610AE0FFF75E
:10205C0065FB02463B69D31A41F28832934201D99F
:10206C000323ABE0574B1B6A03F00203002BEED0AB
:10207C0014E0FFF753FB38610AE0FFF74FFB024611
:10208C003B69D31A41F28832934201D9032395E07C
:10209C004C4B1B6A03F00203002BEED1FB7D012B92
:1020AC0005D1484BDB69474A23F08053D3617B68E9
:1020BC00DB69002B00F08180424B5B6803F00C0362
:1020CC00082B61D07B68DB69022B46D13F4B002289
:1020DC001A60FFF723FB386108E0FFF71FFB02468D
:1020EC003B69D31A022B01D9032367E0354B1B68DC
:1020FC0003F00073002BF0D17B681B6AB3F5803FB3
:10210C0008D1304B5B6823F400327B689B682D4907
:10211C0013434B602B4B5B6823F474127B68196A76
:10212C007B685B6A0B43274913434B60274B0122A7
:10213C001A60FFF7F3FA386108E0FFF7EFFA02468E
:10214C003B69D31A022B01D9032337E01D4B1B68C3
:10215C0003F00073002BF0D02FE01C4B00221A6010
:10216C00FFF7DCFA386108E0FFF7D8FA02463B6962
:10217C00D31A022B01D9032320E0124B1B6803F066
:10218C000073002BF0D118E07B68DB69012B01D1C7
:10219C00012313E00B4B5B68FB60FB6803F480329C
:1021AC007B681B6A9A4206D1FB6803F470127B6849
:1021BC005B6A9A4201D0012300E0002318461837CD
:1021CC00BD4680BD001002400070004060004242DD
:1021DC0080B584B000AF786039607B68002B01D18A
:1021EC000123D0E06A4B1B6803F007033A689A425C
:1021FC0010D9674B1B6823F0070265493B681343F2
:10220C000B60634B1B6803F007033A689A4201D0DA
:10221C000123B8E07B681B6803F00203002B20D07D
:10222C007B681B6803F00403002B05D0594B5B68DB
:10223C00584A43F4E06353607B681B6803F008035F
:10224C00002B05D0534B5B68524A43F460535360E8
:10225C00504B5B6823F0F0027B689B684D4913433D
:10226C004B607B681B6803F00103002B40D07B683C
:10227C005B68012B07D1474B1B6803F40033002B21
:10228C0015D101237FE07B685B68022B07D1414BA2
:10229C001B6803F00073002B09D1012373E03D4B45
:1022AC001B6803F00203002B01D101236BE0394BB7
:1022BC005B6823F003027B685B68364913434B6011
:1022CC00FFF72CFAF8600AE0FFF728FA0246FB68E1
:1022DC00D31A41F28832934201D9032353E02D4B98
:1022EC005B6803F00C027B685B689B009A42EBD145
:1022FC00274B1B6803F007033A689A4210D2244B11
:10230C001B6823F0070222493B6813430B60204BE8
:10231C001B6803F007033A689A4201D0012332E0AC
:10232C007B681B6803F00403002B08D0194B5B6817
:10233C0023F4E0627B68DB68164913434B607B68CF
:10234C001B6803F00803002B09D0124B5B6823F4C5
:10235C0060527B681B69DB000E4913434B6000F035
:10236C0021F802460B4B5B681B0903F00F030A496B
:10237C00CB5C22FA03F3094A1360094B1B6818461D
:10238C00FFF78AF9002318461037BD4680BD00BF01
:10239C000020024000100240F42C00083C000020F9
:1023AC004000002090B48AB000AF2A4B3C1D0FCBEC
:1023BC0084E80F0040F201233B800023FB610023E3
:1023CC00BB6100237B6200237B6100233B62224BB9
:1023DC005B68FB61FB6903F00C03042B02D0082B38
:1023EC0003D02DE01D4B3B622DE0FB699B0C03F0F1
:1023FC000F0307F12802134413F8243C7B61FB699B
:10240C0003F48033002B13D0134B5B685B0C03F08D
:10241C00010307F12802134413F8283CBB617B69C4
:10242C000E4A02FB03F2BB69B2FBF3F37B6204E0DE
:10243C007B690B4A02FB03F37B627B6A3B6202E023
:10244C00064B3B6200BF3B6A18462837BD4690BC22
:10245C00704700BFE42C00080010024000127A0004
:10246C0000093D0080B485B000AF78600A4B1B6852
:10247C000A4AA2FB03235B0A7A6802FB03F3FB60A4
:10248C0000BFFB685A1EFA60002BF9D100BF00BFD9
:10249C001437BD4680BC70473C000020D34D621001
:1024AC0080B582B000AF78607B68002B01D101232E
:1024BC0041E07B6893F83D30DBB2002B06D17B68A2
:1024CC00002283F83C207868FFF74EF87B680222E4
:1024DC0083F83D207B681A687B68043319461046E4
:1024EC0000F06AFA7B68012283F846207B6801229F
:1024FC0083F83E207B68012283F83F207B68012211
:10250C0083F840207B68012283F841207B680122FC
:10251C0083F842207B68012283F843207B680122E8
:10252C0083F844207B68012283F845207B680122D4
:10253C0083F83D20002318460837BD4680BD0000B7
:10254C0080B485B000AF78607B6893F83D30DBB227
:10255C00012B01D0012335E07B68022283F83D205A
:10256C007B681B68DA687B681B6842F00102DA60E2
:10257C007B681B68164A934209D07B681B68B3F1D1
:10258C00804F04D07B681B68124A934211D17B6840
:10259C001B689B6803F00703FB60FB68062B10D0DD
:1025AC007B681B681A687B681B6842F001021A6022
:1025BC0007E07B681B681A687B681B6842F00102A5
:1025CC001A60002318461437BD4680BC704700BF04
:1025DC00002C01400004004080B582B000AF786050
:1025EC007B681B681B6903F00203022B22D17B68FA
:1025FC001B68DB6803F00203022B1BD17B681B6892
:10260C006FF002021A617B6801221A777B681B68E3
:10261C009B6903F00303002B03D0786800F0B1F939
:10262C0005E0786800F0A4F9786800F0B3F97B68ED
:10263C0000221A777B681B681B6903F00403042BC8
:10264C0022D17B681B68DB6803F00403042B1BD1CD
:10265C007B681B686FF004021A617B6802221A7790
:10266C007B681B689B6903F44073002B03D078686C
:10267C0000F087F905E0786800F07AF9786800F0E6
:10268C0089F97B6800221A777B681B681B6903F049
:10269C000803082B22D17B681B68DB6803F0080356
:1026AC00082B1BD17B681B686FF008021A617B68D2
:1026BC0004221A777B681B68DB6903F00303002B89
:1026CC0003D0786800F05DF905E0786800F050F907
:1026DC00786800F05FF97B6800221A777B681B68CA
:1026EC001B6903F01003102B22D17B681B68DB687D
:1026FC0003F01003102B1BD17B681B686FF01002CA
:10270C001A617B6808221A777B681B68DB6903F403
:10271C004073002B03D0786800F033F905E078683B
:10272C0000F026F9786800F035F97B6800221A77FA
:10273C007B681B681B6903F00103012B0ED17B68BE
:10274C001B68DB6803F00103012B07D17B681B6856
:10275C006FF001021A617868FEF72CFE7B681B682B
:10276C001B6903F08003802B0ED17B681B68DB6830
:10277C0003F08003802B07D17B681B686FF080020D
:10278C001A61786800F067FA7B681B681B6903F0B4
:10279C004003402B0ED17B681B68DB6803F04003C1
:1027AC00402B07D17B681B686FF040021A61786878
:1027BC0000F0F9F87B681B681B6903F02003202BE1
:1027CC000ED17B681B68DB6803F02003202B07D13C
:1027DC007B681B686FF020021A61786800F032FA8F
:1027EC0000BF0837BD4680BD80B584B000AF7860AF
:1027FC0039607B6893F83C30012B01D10223B3E0A4
:10280C007B68012283F83C207B68022283F83D2000
:10281C007B681B689B68FB60FB6823F07703FB609D
:10282C00FB6823F47F43FB607B681B68FA689A6043
:10283C003B681B68B3F5005F3ED0B3F5005F00F258
:10284C008780B3F5805F00F08580B3F5805F7FD81B
:10285C00702B1AD0702B7BD8602B50D0602B77D874
:10286C00502B3CD0502B73D8402B58D0402B6FD8CA
:10287C00302B64D0302B6BD8202B60D0202B67D81A
:10288C00002B5CD0102B5AD062E07B6818683B6838
:10289C0099683B685A683B68DB6800F05CF97B68B8
:1028AC001B689B68FB60FB6843F07703FB607B68ED
:1028BC001B68FA689A604EE07B6818683B689968F8
:1028CC003B685A683B68DB6800F045F97B681B681D
:1028DC009A687B681B6842F480429A603BE07B6894
:1028EC0018683B6859683B68DB681A4600F0BCF80E
:1028FC007B681B685021184600F013F92BE07B68AD
:10290C0018683B6859683B68DB681A4600F0DAF8CF
:10291C007B681B686021184600F003F91BE07B689C
:10292C0018683B6859683B68DB681A4600F09CF8ED
:10293C007B681B684021184600F0F3F80BE07B68BD
:10294C001A683B681B681946104600F0EAF802E06A
:10295C0000BF00E000BF7B68012283F83D207B684C
:10296C00002283F83C20002318461037BD4680BD5A
:10297C0080B483B000AF786000BF0C37BD4680BC1C
:10298C00704780B483B000AF786000BF0C37BD4691
:10299C0080BC704780B483B000AF786000BF0C3748
:1029AC00BD4680BC704780B483B000AF786000BF78
:1029BC000C37BD4680BC704780B485B000AF7860E2
:1029CC0039607B681B68FB607B68254A934207D0A3
:1029DC007B68B3F1804F03D07B68224A934208D1C5
:1029EC00FB6823F07003FB603B685B68FA68134379
:1029FC00FB607B681A4A934207D07B68B3F1804F27
:102A0C0003D07B68174A934208D1FB6823F44073C8
:102A1C00FB603B68DB68FA681343FB60FB6823F0E0
:102A2C0080023B685B691343FB607B68FA681A6041
:102A3C003B689A687B68DA623B681A687B689A62C2
:102A4C007B68074A934203D13B681A697B681A6317
:102A5C007B6801225A6100BF1437BD4680BC7047A9
:102A6C00002C01400004004080B487B000AFF86037
:102A7C00B9607A60FB681B6A7B61FB681B6A23F098
:102A8C000102FB681A62FB689B693B613B6923F09E
:102A9C00F0033B617B681B013A6913433B617B6923
:102AAC0023F00A037B617A69BB6813437B61FB6883
:102ABC003A699A61FB687A691A6200BF1C37BD4695
:102ACC0080BC704780B487B000AFF860B9607A60A2
:102ADC00FB681B6A23F01002FB681A62FB689B6997
:102AEC007B61FB681B6A3B617B6923F470437B61F0
:102AFC007B681B037A6913437B613B6923F0A0035A
:102B0C003B61BB681B013A6913433B61FB687A6903
:102B1C009A61FB683A691A6200BF1C37BD4680BCDB
:102B2C00704780B485B000AF786039607B689B6873
:102B3C00FB60FB6823F07003FB603A68FB6813438F
:102B4C0043F00703FB607B68FA689A6000BF143798
:102B5C00BD4680BC704780B487B000AFF860B960E8
:102B6C007A603B60FB689B687B617B6923F47F43E5
:102B7C007B613B681A027B681A43BB6813437A6912
:102B8C0013437B61FB687A699A6000BF1C37BD46B2
:102B9C0080BC704780B485B000AF786039607B68CA
:102BAC0093F83C30012B01D1022341E07B680122D8
:102BBC0083F83C207B68022283F83D207B681B68ED
:102BCC005B68FB607B681B689B68BB60FB6823F0E1
:102BDC007003FB603B681B68FA681343FB607B68FF
:102BEC001B68FA685A607B681B68144A934209D0C8
:102BFC007B681B68B3F1804F04D07B681B68104A5C
:102C0C0093420CD1BB6823F08003BB603B685B68CC
:102C1C00BA681343BB607B681B68BA689A607B68B0
:102C2C00012283F83D207B68002283F83C2000239E
:102C3C0018461437BD4680BC704700BF002C0140BD
:102C4C000004004080B483B000AF786000BF0C3744
:102C5C00BD4680BC704780B483B000AF786000BFC5
:102C6C000C37BD4680BC704770B500260C4D0D4C22
:102C7C00641BA410A64209D100F022F800260A4DCC
:102C8C000A4C641BA410A64205D170BD55F8043B38
:102C9C0098470136EEE755F8043B98470136F2E7C2
:102CAC00042D0008042D0008042D0008082D000830
:102CBC0003460244934200D1704703F8011BF9E725
:102CCC00F8B500BFF8BC08BC9E467047F8B500BF0D
:082CDC00F8BC08BC9E467047DD
:102CE40002030405060708090A0B0C0D0E0F101049
:102CF40000000000000000000102030406070809A8
:042D04003101000891
:042D08000D010008B1
:102D0C0001000000010000000100000001000000B3
:102D1C0001000000010000000100000001000000A3
:102D2C000100000001000000010000000100000093
:102D3C000500000003000000020000000024F40065
:082D4C0010000000010000006E
:040000050800162DAC
:00000001FF
